:100000000C9462000C947F000C947F000C947F0091
:100010000C947F000C947F000C947F000C947F0064
:100020000C947F000C947F000C947F000C947F0054
:100030000C947F000C947F000C947F000C947F0044
:100040000C9481000C947F000C947F000C947F0032
:100050000C947F000C947F000C947F000C947F0024
:100060000C947F000C947F00000000002500280005
:100070002B0000000000240027002A0000000000E0
:1000800023002600290004040404040404040202DA
:100090000202020203030303030301020408102007
:1000A0004080010204081020010204081020000012
:1000B0000008000201000003040700000000000027
:1000C0000000E50111241FBECFEFD8E0DEBFCDBF99
:1000D00021E0A0E0B1E001C01D92A431B207E1F738
:1000E00010E0C2E6D0E004C02197FE010E94FC01AE
:1000F000C136D107C9F70E94C9000C94F9010C94CC
:1001000000001F921FB61F9211242F933F938F93CD
:100110009F93AF93BF938091100190911101A09193
:100120001201B091130130910F0123E0230F2D37FD
:1001300050F50196A11DB11D20930F018093100170
:1001400090931101A0931201B093130180910B01C0
:1001500090910C01A0910D01B0910E010196A11D8D
:10016000B11D80930B0190930C01A0930D01B093EE
:100170000E01BF91AF919F918F913F912F911F9051
:100180001FBE1F90189526E8230F0296A11DB11DD2
:10019000D3CF789484B5826084BD84B5816084BDFA
:1001A00085B5826085BD85B5816085BD80916E0015
:1001B000816080936E001092810080918100826046
:1001C0008093810080918100816080938100809183
:1001D00080008160809380008091B1008460809372
:1001E000B1008091B00081608093B00080917A006E
:1001F000846080937A0080917A00826080937A0094
:1002000080917A00816080937A0080917A00806882
:1002100080937A001092C1008091020190E0FC016D
:10022000E656FF4F24918A579F4FFC018491882303
:10023000C1F090E0880F991FFC01EE58FF4FC59167
:10024000D491FC01E859FF4FA591B4919FB7F89460
:100250003881822F809583238883EC91E22BEC9365
:100260009FBFFF24F394C0E0D0E0EE24E39401E0CC
:1002700010E04091070150910801609109017091CF
:100280000A012FB7F8948091100190911101A0916B
:100290001201B09113012FBF84179507A607B70766
:1002A00008F459C08091020190E0FC01E255FF4F33
:1002B0002491FC01E656FF4F3491FC01EA57FF4FB1
:1002C000E49190E080E0EE23F9F0222371F02430F5
:1002D00009F46AC008F059C0223009F46DC0233017
:1002E00009F45CC0213009F463C0F0E0EE0FFF1F99
:1002F000E458FF4FA591B491EC913E2341E020E0FA
:1003000009F440E0842F922F209105012817190647
:1003100011F12FB7F8948091100190911101A091E3
:100320001201B09113012FBF2091030130910401FC
:10033000820F931FA11DB11D8093070190930801A7
:10034000A0930901B0930A01809105018F25809344
:100350000501E092060180910501811110C0809194
:100360000601882361F010920601809100019091AE
:100370000101892B21F410930101009300012097C2
:1003800009F477CF0E94000074CF2730C1F02830E5
:1003900009F0ABCF8091B0008F7D14C080918000B8
:1003A0008F7780938000A1CF809180008F7DF9CFDF
:1003B00084B58F7784BD99CF84B58F7DFBCF809135
:1003C000B0008F778093B00090CF1092010110920F
:1003D0000001E2E0F1E082E0808384EF91E092832B
:1003E000818381E0838314821582168217821086AE
:1003F0000895F8940C940202EE0FFF1F0590F491FB
:08040000E02D0994F894FFCFF0
:00000001FF
